[
  {
    "key": "c85ef7d79691fe79573b1a7064c19c1a9819ebdbd1faaab1a8ec92344438aaf4",
    "nonce": 0,
    "gasPrice": 1000000000000,
    "gasLimit": 10000,
    "to": "0x13978aee95f38490e9769c39b2773ed763d9cd5f",
    "value": 10000000000000000,
    "data": "",
    "unsigned": "eb8085e8d4a510008227109413978aee95f38490e9769c39b2773ed763d9cd5f872386f26fc1000080808080",
    "signed": "f86b8085e8d4a510008227109413978aee95f38490e9769c39b2773ed763d9cd5f872386f26fc10000801ba0450aaefa068221d1ead74d03410158b7b5430d0ce5d0d73f64da5977d1d14909a04556a85a9e573f56f18565b7fcc04381d005a629fc1ef9a60ac3a884b29c24f9"
  },
  {
    "key": "c87f65ff3f271bf5dc8643484f66b200109caffe4bf98c4cb393dc35740b28c0",
    "nonce": 0,
    "gasPrice": 1000000000000,
    "gasLimit": 10000,
    "to": "",
    "value": 0,
    "data": "0x6025515b525b600a37f260003556601b596020356000355760015b525b54602052f260255860005b525b54602052f2",
    "unsigned": "f83f8085e8d4a510008227108080af6025515b525b600a37f260003556601b596020356000355760015b525b54602052f260255860005b525b54602052f2808080",
    "signed": "f87f8085e8d4a510008227108080af6025515b525b600a37f260003556601b596020356000355760015b525b54602052f260255860005b525b54602052f21ba07f9ce7995506b5fc533f249b784934305b22dfc045e2000b9a72f48655a07d7ca05f302cb83a123b83766cd000219829d42f32b51acb2a2ac0dd8a93036958ecc1"
  }
]
